:1000000005308A003D2D0000D4326D386539613AE3
:100010007539651D000043100001A02272396F3947
:1000200021100000363084008313000803192528AE
:100030000230F800F701F70B1B28F80B1A2897304D
:10004000F700F70B2128800B182808003D182A28F4
:1000500088112B288815831688118312BD18322821
:100060000812332808168316081283123D193A28FD
:1000700088123B288816831688128312BD194228DD
:100080000813432808178316081300008312081565
:10009000831608114B284C28831208118316081167
:1000A00083120800BE018316881500308312881958
:1000B0000130BE048316081600308312081A01307E
:1000C000F7000310F70D7708BE048316881600307A
:1000D0008312881A0130F700F70DF70DFC30F70591
:1000E0007708BE048316081700308312081B0130FE
:1000F000F700F70DF70DF70DF830F7057708BE0498
:100100003E08F800080083160811081088108312B2
:100110000810831608108815081688160817831209
:10012000881483168810000083120815831608119E
:100130000000831252207808BD00081183160811B0
:1001400000008312081583160811A6288312522076
:100150007808BC000811831608118811081288124B
:10016000081383123D0EF700F030F70577083C04C2
:10017000F8007808BC00BC1FBF2883168B28BA087B
:10018000031DC4280810C528081483160810000091
:1001900083128810831688100000831208118316BA
:1001A000081183123B0EBC000F30BC053C08BD009B
:1001B00026203B080F39BC00BD002620080028304F
:1001C000A9000C30AA000130AB000630AC000811C9
:1001D00083160811831208108316081083128810E2
:1001E0008316881088110812881208130811081045
:1001F00088100F308312B60012200130A8002808A2
:10020000033C031C0B290330BD0026200530B6003B
:100210001220A80AFF280230BD0026200530B600B3
:100220001220A8012808033C031C22292930280792
:10023000840083130008AD00BA012D08BB008320A1
:10024000A80A12298A110A124C2D370B28292B29AA
:100250004030B8002C29B80101303602B807380800
:100260008038B900BA013908BB008320080035087E
:10027000073A031945290B3A03194A29063A031983
:100280005229023A031958295D290130B600B700F6
:1002900025216229BA010130BB0083200230B6005B
:1002A000122062290130B6000230B70025216229F0
:1002B000BA011030BB00832062290130BA00350832
:1002C000BB00832008000B08A8008B1383160317BC
:1002D0008C170C140000000083120313A81B8B174B
:1002E00003170C087F390319B7290313A800031754
:1002F0000D080313A90003170F080313AA00280809
:10030000B5003721290803178D0003132A080317A6
:100310008F0003130B08AB008B13831603178C1786
:100320000C140000000083120313AB1B8B17031780
:100330000C0D0E0D7F390319B7290313A8000317FD
:100340000D080313A90003170F080313AA002808B8
:10035000B5003721290803178D0003132A08031756
:100360008F008D0A03198F0A0313632903170313E0
:1003700008000830AB02031CC9292B30840083130A
:100380000310800C00080319C929C7290000800B3D
:10039000C6290800831686108312861083168610DD
:1003A00002308312AA00F830AB00B921AA0BD3297E
:1003B000831686144230F700F70BDC290000861400
:1003C00083128618ED290230AA00C630AB00B9218D
:1003D000AA0BE5290130F800EF290030F8000800E9
:1003E000AB012B08073C031C202A2A08F7002B0826
:1003F000F8000319FF290310F70CF80BFB29003054
:1004000077180130AC002C08AD00831686108312DB
:100410008610831686100C2A0D2A8312AD08031D40
:10042000132A8610142A8614831686103530F70096
:10043000F70B182A86141C2A1D2A8312AB0AF129ED
:100440000800AF01AE012E08073C031C4B2A83169F
:10045000861083128610831686102E2A2F2A861461
:100460000330F700F70B322A8614831230108618F7
:1004700030144230F700F70B3B2A000000303018F0
:100480000130F800F808031D472A0310482A031416
:10049000AF0CAE0A232A2F08F8000800CA21F8087A
:1004A000031D552A0030F800A32ACC30AA00F02101
:1004B0004430AA00F0212122F80803195B2ACA213E
:1004C000F808031D662A0030F800A32ACC30AA00E1
:1004D000F021BE30AA00F0212908FA002808AA005D
:1004E0002908AB0021222A08840083132B188317C4
:1004F000840A80018403780880002908FA0028080B
:10050000AA002908AB002808840083132918831740
:10051000840A0008AD0084030008AC002122AF016A
:1005200000302C04F70078082D04FA002A08840013
:1005300083132B188317840A7A08800084037708B2
:1005400080000130F8008A110A125F2D8E30F7000A
:100550002908F8002808F900FA01A91FB42AF809A7
:10056000F909F90A0319F80AF808031DC12A7908DC
:10057000F800F9010830F702F808031DC12AF70155
:10058000CA2A0310F81BC82AF90DF80DF703C12A6F
:10059000A91FF8138A110A12672D2C080319922B30
:1005A000B80030080319922BB802031CDC2A7F30F4
:1005B000B8070318922BE22A8130B802031C922B51
:1005C0000319922B3808F700F801F901FA01B70175
:1005D0002D08B600B6172E08B5002F08B400193044
:1005E000B8003308B4020318052B0130B502031814
:1005F000052BB6020318052BB7020318052BB70A03
:10060000B60AB50A3308B407372B3208B502031807
:10061000202B0130B6020318202BB7020318202B21
:10062000B70AB60A3208B5073308B407031C372BDC
:10063000B50A031D372BB60A031D372BB70A372B14
:1006400031088038B6020318362B0130B702031880
:10065000362BB70A31088038B6073208B507031CB5
:10066000142BB60A031D142BB70A142B7A14B80BDB
:100670003A2B452B0310B40DB50DB60DB70D031075
:10068000FA0DF90DF80DB90DF12A391C4D2B031097
:10069000F80CF90CFA0CB90C502BF7030319922B38
:1006A000B91B792B0310B40DB50DB60DB70D33087A
:1006B000B4020318652B0130B5020318652BB6028E
:1006C0000318652BB702031C882B3208B5020318E8
:1006D000702B0130B6020318702BB702031C882B55
:1006E00031088038B6020318792B0130B702031C99
:1006F000882BFA0A031D882BF90A031D882BF80A98
:10070000031D882BF70A0319922BF80CF90CFA0C2D
:100710002D08B8003108B806B81F902BF817962B93
:10072000F813962BF701F801F901FA018A110A1260
:100730007D2D83189E2B3D3084008313F701F80133
:10074000F901FA01BD01BE01BF01C0013C083B0433
:100750003A0439040319DC2B2030C1000310B50D15
:10076000B60DB70DB80DBD0DBE0DBF0DC00D3C08CB
:100770004002031DC52B3B083F02031DC52B3A0851
:100780003E02031DC52B39083D02031CD62B390838
:10079000BD023A08031C3A0FBE023B08031C3B0F84
:1007A000BF023C08031C3C0FC0020314F70DF80DF8
:1007B000F90DFA0DC10BAE2B3D088000840A3E08EE
:1007C0008000840A3F088000840A400880000800F6
:1007D0000408AD002C08AF0003197A2C2B08B800D0
:1007E0002A08B7002908B6002808B500BC01BB01DB
:1007F0002030BA008230B900350803196C2CBD00D6
:10080000390803196C2CBD0703180D2C7F30BD026D
:10081000031C6C2C03196C2C112C8130BD070318A0
:100820006C2C3D08F700F801F901FA013608C10007
:10083000C1173708C0003808BF001830BD00BE011E
:100840003F1C3A2C3C08FA07031C2C2CF90A031D08
:100850002C2CF80A0319BE173B08F907031C332C8C
:10086000F80A0319BE173A08B700B7173708F80790
:100870000318BE17BE0DF80CF90CFA0CC10CC00C15
:10088000BF0C0310BD0B1F2C0130F70703186C2C95
:10089000F81B512CC10DFA0DF90DF80DF7030319D2
:1008A0006C2CC11F622CFA0A031D622CF90A031D6D
:1008B000622CF80A031D622CF80CF90CFA0CF70AEA
:1008C00003196C2C3608BE003A08BE06BE1F6A2CFF
:1008D000F817702CF813702CF701F801F901FA01E0
:1008E0007A08AB007908AA007808A9007708A80060
:1008F000AF0BEE2B2B08B8002A08B7002908B6006A
:100900002808B5003508B63CB500FA013608B9002C
:10091000B6170310B60CB70CB80CFA0CF90CF80C9F
:10092000F70CB50B892CB91FA02CF709F809F909A8
:10093000FA09F70A0319F80A0319F90A0319FA0A56
:100940007A08AB007908AA007808A9007708A800FF
:10095000AB1FB72CAD03AD16A809A909AA09AB09AD
:10096000A80A0319A90A0319AA0A0319AB0A3B30FA
:10097000B4009A30B300CA30B200B1010A30AF00FF
:100980002C080319AD0A83142830840083132B0824
:10099000B8002A08B7002908B6002808B5003408AE
:1009A000BC003308BB003208BA003108B9009923F3
:1009B0007808F708031DEF2C2C0A2F020319EF2CDF
:1009C0002D080319F12C0F392F020319E92C0318F4
:1009D000212DAD1B212D2D1BF12C20301D2D203064
:1009E000AD05AD1EFF2CAD122C08031DAD0377081D
:1009F000AD002D30B50037212D08F700AD012C08D2
:100A00002F02031D0D2D7708AD002E30B5003721C4
:100A10002D08F7002030AD0500303030AD1E1D2D03
:100A2000AD122C08031DAD037708AD002D30B500C5
:100A300037212D08F700AD013030F7077708B500F2
:100A4000372183103408B8003308B7003208B600E5
:100A50003108B500BC01BB01BA010A30B9009923C5
:100A60007A08B4007908B3007808B2007708B100BA
:100A7000AF0BC32C8A110A12972D03081F3983006C
:100A8000A701A60183161F149F141F159F1107307D
:100A90009C0083138312DF280C30B500372103300C
:100AA000B6000130B7002521043003178D00003057
:100AB0008F0003136321A9012030A8004E2AF808F3
:100AC0000319A22D2108A9002008A800A62A7A0847
:100AD000AB007908AA007808A9007708A8007A086E
:100AE000AF007908AE007808AD007708AC00B3011C
:100AF000B201B1018330B000CD2A7A08A50079088F
:100B0000A4007808A3007708A2000530B6000230E0
:100B1000B7002521893084002508AB002408AA00ED
:100B20002308A9002208A8000230AC00E82BDF301F
:100B3000B50037210B3003178D0000308F000313F1
:100B40006321AE2D0530B6000230B70025210D30EF
:100B500003178D0000308F00031363210430A800B9
:0E0B6000FA30B6001220A80BB02D5B2D6300FA
:02400E00723FFF
:00000001FF
;PIC16F877A
;CRC=BAC5  CREATED="06-Tem-25 06:58"
