:10000000B6EF1AF012001200046ED8CF05F0E0CF60
:1000100006F00001E9CF0CF0EACF07F0E1CF08F0DD
:10002000E2CF09F0D9CF0AF0DACF0BF0F3CF12F01C
:10003000F4CF13F0FACF14F0F5CF15F0F6CF16F099
:10004000F7CF17F000C00EF001C00FF002C010F0A3
:1000500003C011F09DA030EF00F09EB09CEF03F0C4
:100060000EC000F00FC001F010C002F011C003F08C
:100070000CC0E9FF07C0EAFF078E08C0E1FF09C016
:10008000E2FF0AC0D9FF0BC0DAFF12C0F3FF13C0B2
:10009000F4FF14C0FAFF15C0F5FF16C0F6FF17C035
:1000A000F7FF045006C0E0FF05C0D8FF1000BC0FEA
:1000B000F66E000EF7220900F55012000000000055
:1000C000003E5B4F5B3E3E6B4F6B3E1C3E7C3E1CDE
:1000D000183C7E3C181C577D571C1C5E7F5E1C0024
:1000E000183C1800FFE7C3E7FF0018241800FFE7DB
:1000F000DBE7FF30483A060E2629792926407F059E
:100100000507407F05253F5A3CE73C5A7F3E1C1CB3
:1001100008081C1C3E7F14227F22145F5F005F5F73
:1001200006097F017F006689956A6060606060945F
:10013000A2FFA29408047E040810207E2010080864
:100140002A1C08081C2A08081E101010100C1E0C6F
:100150001E0C30383E3830060E3E0E060000000001
:100160000000005F00000007000700147F147F14E8
:10017000242A7F2A1223130864623649562050002D
:1001800008070300001C2241000041221C002A1C19
:100190007F1C2A08083E0808008070300008080804
:1001A0000808000060600020100804023E51494524
:1001B0003E00427F400072494949462141494D3342
:1001C0001814127F1027454545393C4A49493141A9
:1001D000211109073649494936464949291E000077
:1001E00014000000403400000008142241141414CC
:1001F0001414004122140802015909063E415D59B8
:100200004E7C1211127C7F494949363E41414122C0
:100210007F4141413E7F494949417F090909013EEA
:10022000414151737F0808087F00417F4100204011
:10023000413F017F081422417F404040407F021C23
:10024000027F7F0408107F3E4141413E7F0909093A
:10025000063E4151215E7F09192946264949493206
:1002600003017F01033F4040403F1F2040201F3FCC
:100270004038403F63140814630304780403615951
:10028000494D43007F414141020408102000414193
:10029000417F04020102044040404040000307083F
:1002A0000020545478407F2844443838444444283B
:1002B000384444287F385454541800087E090218E2
:1002C000A4A49C787F0804047800447D400020406A
:1002D000403D007F1028440000417F40007C0478AE
:1002E00004787C080404783844444438FC182424F6
:1002F0001818242418FC7C08040408485454542476
:1003000004043F44243C4040207C1C2040201C3CF2
:100310004030403C44281028444C9090907C4464E9
:10032000544C44000836410000007700000041367C
:10033000080002010204023C2623263C1EA1A16102
:10034000123A4040207A3854545559215555794134
:100350002254547842215554784020545579400C09
:100360001E527212395555555939545454593955EC
:100370005454580000457C410002457D420001452F
:100380007C407D1211127DF0282528F07C545545C3
:10039000002054547C547C0A097F4932494949322F
:1003A0003A4444443A324A4848303A4141217A3A40
:1003B00042402078009DA0A07D3D4242423D3D400C
:1003C00040403D3C24FF2424487E4943662B2FFCBB
:1003D0002F2BFF0929F620C0887E09032054547969
:1003E000410000447D413048484A32384040227A3A
:1003F000007A0A0A727D0D19317D2629292F2826B7
:100400002929292630484D402038080808080808BE
:100410000808382F10C8ACBA2F102834FA00007B17
:10042000000008142A142222142A1408550055002A
:1004300055AA55AA55AAFF55FF55FF000000FF0019
:10044000101010FF00141414FF001010FF00FF1014
:1004500010F010F0141414FC001414F700FF000046
:10046000FF00FF1414F404FC141417101F10101FC5
:10047000101F1414141F00101010F0000000001FB3
:10048000101010101F10101010F010000000FF10BE
:100490001010101010101010FF10000000FF1400BA
:1004A00000FF00FF00001F10170000FC04F41414EC
:1004B0001710171414F404F40000FF00F7141414B8
:1004C00014141414F700F7141414171410101F1038
:1004D0001F141414F4141010F010F000001F101F5B
:1004E0000000001F14000000FC140000F010F010C9
:1004F00010FF10FF141414FF141010101F00000040
:1005000000F010FFFFFFFFFFF0F0F0F0F0FFFFFF43
:100510000000000000FFFF0F0F0F0F0F384444389A
:1005200044FC4A4A4A347E02020606027E027E02E9
:1005300063554941633844443C04407E201E2006F4
:10054000027E020299A5E7A5991C2A492A1C4C7231
:1005500001724C304A4D4D303048784830BC625AB8
:10056000463D3E494949007E0101017E2A2A2A2A48
:100570002A44445F444440514A444040444A514024
:100580000000FF0103E080FF000008086B6B0836E5
:1005900012362436060F090F060000181800000056
:1005A0001010003040FF0101001F01011E00191D45
:1005B0001712003C3C3C3C0000000000CA0FF66EE5
:1005C000050EF7220900F55012004C6F72656D2080
:1005D000697073756D20646F6C6F7220736974201D
:1005E000616D65742C20636F6E73656374657475DB
:1005F000722061646970697363696E6720656C69F4
:10060000742E204375726162697475722061646929
:1006100070697363696E6720616E746520736564C9
:10062000206E6962682074696E636964756E7420F7
:10063000666575676961742E204D616563656E61DD
:100640007320656E696D206D617373612C20667215
:10065000696E67696C6C6120736564206D616C659F
:1006600073756164612065742C206D616C657375B0
:100670006164612073697420616D657420747572A2
:100680007069732E2053656420706F72747469747E
:100690006F72206E6571756520757420616E74656A
:1006A000207072657469756D207669746165206D5E
:1006B000616C657375616461206E756E632062693B
:1006C00062656E64756D2E204E756C6C616D206177
:1006D0006C697175657420756C74726963657320DB
:1006E0006D617373612065752068656E64726572F3
:1006F00069742E20557420736564206E69736920B7
:100700006C6F72656D2E20496E2076657374696218
:10071000756C756D207075727573206120746F72C1
:10072000746F7220696D7065726469657420706F92
:1007300073756572652E2000010E1926D8B01A2A2D
:10074000D8B41B2AD8B41C2A9E9030EF00F048651C
:100750006C6C6F20576F726C64210D0A0000486545
:100760006C6C6F20576F726C64210D0A0000486535
:100770006C6C6F20576F726C64210D0A00004D5530
:100780005241542049524B414E0D0A002057616E90
:10079000742070693F0D0A00200D0A002050726914
:1007A0006E7420484558210D0A00200D0A00536B35
:1007B0006574636820686173206265656E0D0A0068
:1007C00072756E6E696E6720666F723A200D0A0050
:1007D000207365636F6E64732E00010EEA6EA50EC2
:1007E000E96EEF500EE0140E016E006A002EFED787
:1007F000012EFBD7BF0E006E002EFED700D0EF2ECD
:10080000F2D71200A6C101F0A5C100F00066012ACE
:100810000900F5CFEEFF002EFBD7012EF9D7F86ABD
:100820001200C950E6C1C9FFC730FEE3C9CF00F0CE
:10083000120095928C92E5C1E6F1F3DF95928C82DD
:10084000120002EC00F001019F51036E9E519E2B9D
:10085000D8B49F2BF66E03C0F7FFF86A010EEA6E5C
:10086000A40EE96EA66B010EA56F0001CBDFA4C13B
:10087000A0F10101A051A007000AD8B481D09F5176
:10088000036E9E519E2BD8B49F2BF66E03C0F7FFCC
:10089000F86A010EEA6EA40EE96EA66B010EA56F52
:1008A0000001B0DFA4C1E5F1C4DF01019F51036E77
:1008B0009E519E2BD8B49F2BF66E03C0F7FFF86AAB
:1008C000010EEA6EA40EE96EA66B010EA56F000183
:1008D00099DFA4C1A1F10101A151800BA26FA36B0B
:1008E000A19FA151A107000A18E09F51036E9E51DC
:1008F0009E2BD8B49F2BF66E03C0F7FFF86A010E4B
:10090000EA6EA40EE96EA66B010EA56F00017ADFF8
:10091000A4C1E6F186DF0101E4D7A251A3112FE0C3
:100920009F51036E9E519E2BD8B49F2BF66E03C031
:10093000F7FFF86A010EEA6EA40EE96EA66B010ECF
:10094000A56F00015FDF0101A36BA4C1A2F1A23D6D
:1009500006D0A35304E1010EA36FF40EA26FA3C14E
:10096000A4F1A42BA407D8B405D0A569000135DFF4
:100970000101F8D7A2C1A5F100012FDF01017AD74B
:10098000000103EC00F02AEF05F001019F6B9E517E
:10099000030B236E2350FC0F20E2040F0001FCEF39
:1009A00004F0C00E01019F6F21C01FF022C020F093
:1009B00014D0A00E01019F6F22C01FF021C020F0B3
:1009C0000CD001019F6B1F6A206A07D0600E0101E5
:1009D0009F6F1F6A206A01D00101000102EC00F044
:1009E000360E0101E56F000124DF9FC1E6F119DF3A
:1009F00003EC00F035EF05F0E824F76AF736130F43
:100A0000F66E0A0EF7220A00F550FA6E0800F5504D
:100A1000F96EA209B209C209CC0995908C80959013
:100A2000640E0101A56F0001D8DE95908C90640ED4
:100A30000101A56F0001D1DE95908C80C80E0101E7
:100A4000A56F0001CADE959201019F69DC0E9E6FC1
:100A50000001F7D6216A500E226EF00E1E6E1D6E3A
:100A6000020E01019E6F000190D7EDEF1AF0A5C1B3
:100A700025F0A4C124F0A7C127F0A6C126F01200DA
:100A8000A5C12BF0A4C12AF02BC029F02AC028F060
:100A900012002D900101A4B12D800001120001016E
:100AA000CB51CD03F3CF01F0F4CF00F0CE03F350E0
:100AB0000026CC51CD03F3500020026E000112003D
:100AC0001F500101E1272050E2272A0EE56F0001A7
:100AD000B0DE0101E66B0001A4DEE1C1E6F1A1DEBA
:100AE0000101E66B00019DDE0101E351E125FF0FED
:100AF000E56FE66F000195DE2B0E0101E56F000149
:100B000098DE0101E66B00018CDEE2C1E6F189DED0
:100B10000101E66B000185DE0101E451E225FF0FD2
:100B2000E56FE66F00017DDE2C0E0101E56F00012F
:100B300080DE12001D500101DC5D1FE21E50DD5DF4
:100B40001CE2000102EC00F0DCC1E1F1DDC1E2F1E8
:100B5000010E0101E36FE46F0001B2DF0101E26BFE
:100B6000DFC1E6F100015DDE0101E16BDEC1E6F10E
:100B7000000157DE03EC00F0010100011200010149
:100B8000BC534EE0BD534CE0BFC1C0F1BEC1C1F18A
:100B90001D50BA5D03E21E50BB5D01E341D0BC5164
:100BA000BA25FF0F1D5C01E003E2BA511D5CBC6F6A
:100BB000BD51BB25FF0F1E5C01E003E2BB511E5C73
:100BC000BD6F000102EC00F0BAC1E1F1BBC1E2F17E
:100BD000BCC1E3F1BDC1E4F173DF0101CC6BBCC169
:100BE000CBF1CE6BBDC1CDF1000159DF02C0C3F125
:100BF00001C0C2F10101C3C103F0C251D8B4C3079F
:100C0000C207031009E0C0C1E6F100010ADEC1C15C
:100C1000E6F107DEEFD70101000103EC00F001016E
:100C2000000112001D500101D15D32E21E50D25D63
:100C30002FE2D3532DE0D5C1D6F1D4C1D7F1D35192
:100C4000D225FF0F1E5C01E003E2D2511E5CD36F80
:100C5000000102EC00F0D1C1E1F1D2C1E2F1010EDC
:100C60000101E36FD3C1E4F100012ADF0101D35197
:100C7000D307000A09E0D6C1E6F10001D2DDD7C1F1
:100C8000E6F1CFDDF3D70101000103EC00F0010133
:100C9000000112000101B251200807E1245205E1D0
:100CA000255203E12DA001D040D1B2510D0803E13E
:100CB000256A246A3AD1B2510A0807E12C50080D7E
:100CC000F3502626000E272230D1B36BB35104080F
:100CD000D8A0A3D0CC6BB2C1CBF1CE6B050ECD6F3B
:100CE0000001DDDE02C0B7F101C0B6F10101B35170
:100CF0000124016E000E0220036E015003C0F7FFB5
:100D0000000157EC00F0E8CFB4F10101B56BB5512B
:100D10000708D8A080D0B4A13AD02C2C18D0B35159
:100D20002424B66F000E2520B76FB5512624B86F66
:100D3000000E2720B96FB6C1DCF1B8C1DDF129C0C2
:100D4000DFF128C0DEF10001F5DE1FD00101B35153
:100D50002C02F3502424B66F000E2520B76FB55136
:100D60002C02F3502624B86F000E2720B96FB6C1AD
:100D7000BAF1B8C1BBF12CC0BCF12CC0BDF129C087
:100D8000BFF128C0BEF10001FADE3FD001012850BA
:100D90002A5C03E129502B5C39E02C2C18D0B3518C
:100DA0002424B66F000E2520B76FB5512624B86FE6
:100DB000000E2720B96FB6C1DCF1B8C1DDF12BC040
:100DC000DFF12AC0DEF10001B5DE1FD00101B35111
:100DD0002C02F3502424B66F000E2520B76FB551B6
:100DE0002C02F3502624B86F000E2720B96FB6C12D
:100DF000BAF1B8C1BBF12CC0BCF12CC0BDF12BC005
:100E0000BFF12AC0BEF10001BADE0101B551B52B18
:100E1000D890B4337CD7B32B59D728502A5C03E140
:100E200029502B5C2FE02C2C14D0050E2424B66FF7
:100E3000000E2520B76FB6C1D1F126C0D2F1080E41
:100E4000D36F2BC0D5F12AC0D4F10001EBDE19D04D
:100E500001012C50050DF3502424B66F000E2520FF
:100E6000B76F2C50080DF3CFBDF1B6C1BAF126C053
:100E7000BBF12CC0BCF12BC0BFF12AC0BEF10001F8
:100E80007EDE01012C50060DF3502426000E252293
:100E9000B76B1DC0B6F12C50060DF3501D24016E2A
:100EA000000EB721036E015025BE0CD00350255C07
:100EB00009E303E12450015C05E2036A1DC024F04C
:100EC00003C025F02DA031D02C50050DF350242463
:100ED000B66F000E2520B76FE8BE27D0B75303E1E9
:100EE000B6511D5C22E2256A246A2C50080DF3508D
:100EF0002626000E2722B76B1EC0B6F12C50080D17
:100F0000F3501E24016E000EB721036E015027BE60
:100F10000CD00350275C09E303E12650015C05E295
:100F2000036A1EC026F003C027F000011200EF5232
:100F30000FE0EACFA5F1E9CFA4F1EFCFB2F1AADE3D
:100F4000A5C1EAFFA4C1E9FFE92AD8B4EA2AEFD78C
:100F5000C0EF07F00101A56BA46BA76BA66B0001A6
:100F600086DDA3C1A5F1A2C1A4F18ADD010E0101B4
:100F7000A46F00018EDDA1C1EAFFA0C1E9FFD7D7B0
:100F80000AEF1BF0A3C129F0A2C128F0A5C12BF0E4
:100F9000A4C12AF06BEF0AF00101A25302E0A251B2
:100FA00001D0010E2C6E000112000900F5520CE078
:100FB000F6CFA2F1F7CFA3F1F5CFB2F16BDEA2C16C
:100FC000F6FFA3C1F7FFF1D712000101AF51D8B46A
:100FD00071D0006EB351D8B46DD0002604E3810EF9
:100FE000002668E204D07F0E005E64E363E0B0C1D7
:100FF000B7F1B451B71BB08FB48FB251B603F4CF71
:10100000B9F1B151B503F4CF03F0F3CFB8F1B603A2
:10101000F350B927F450B823000E0322B251B503A0
:10102000F350B927F450B823000E026A03220222BB
:10103000B051B603F350B827F4500322000E022239
:10104000B051B503F3500326F4500222000E016A9A
:101050000122B251B403F350B827F4500322000E1A
:1010600002220122B151B403F3500326F4500222AC
:10107000000E0122B051B403F3500226F4500122B5
:10108000002A01BE05D0B837033602360136000605
:10109000000EB8AF0AD0032A02220122015005E156
:1010A000025003E1035001E1002AB7BF018EB7AF40
:1010B000019E04D0006A016A026A036A0001E3EF3C
:1010C00008F00101AF51B608AF6F036AB0C1B3F1C8
:1010D000B08FD890B033B133B23303320232013221
:1010E0000032AF2FF6D7B3AF0BD0001E011E021E89
:1010F000031E002AD8B4012AD8B4022AD8B4032A7D
:101100000001F8EF08F0D8B204D0010EEA6EBA0E72
:10111000E96E006A016A026A036A0101BA6BBB6B7D
:10112000BC6BBD6BB951B811B711B6112CE0200ED4
:10113000BE6FD890B237B337B437B537BA37BB378D
:10114000BC37BD37B951BD5D08E1B851BC5D05E1A3
:10115000B751BB5D02E1B651BA5D0FE3B651BA5F5C
:10116000B751D8A0B73DBB5FB851D8A0B83DBC5F60
:10117000B951D8A0B93DBD5FD880003601360236DE
:101180000336BE2FD6D7BAC1EFFFBBC1ECFFBCC13F
:10119000ECFFBDC1ECFF00011200E9500101A76F97
:1011A000A651A96F1BE0A5C1B2F1A4C1B1F1A3C1C1
:1011B000B0F1A2C1AFF1B66BB56B200EB46F820E69
:1011C000B36F000102D703C0A5F102C0A4F101C0B2
:1011D000A3F100C0A2F10101A92FE5D7A5C1B2F189
:1011E000A4C1B1F1A3C1B0F1A2C1AFF1000169D7AF
:1011F00003C0A5F102C0A4F101C0A3F100C0A2F197
:101200000101A5AF0DD0A707A78BA21FA31FA41F85
:10121000A51FA22BD8B4A32BD8B4A42BD8B4A52B2C
:101220003B0EAE6F9A0EAD6FCA0EAC6FAB6B0A0E73
:10123000A96FA651D8B4A72BD882010EEA6EA20ED0
:10124000E96EA5C1B5F1A4C1B4F1A3C1B3F1A2C1C6
:10125000B2F1AEC1B9F1ADC1B8F1ACC1B7F1ABC13A
:10126000B6F1000150DF0150005213E10101A6293F
:10127000A95DD8A402D000010CD0A7510DE00F0B3E
:10128000A95D01E040E2A7BF3ED0A7BD05D0200E7A
:1012900034D0200E0101A717A7AB0ED0A79BA651F3
:1012A000D8A4A7070050A76F2D0EB26F0001F2DC83
:1012B0000101A751006EA76BA651A95D0CE100507A
:1012C000A76F2E0EB26F0001E5DC0101A751006E81
:1012D000200EA717000E300EA7AB0FD0A79BA6516C
:1012E000D8A4A7070050A76F2D0EB26F0001D2DC63
:1012F0000101A751006EA76B300E002600C0B2F1AD
:101300000001C8DC0101D892AEC1B5F1ADC1B4F1A4
:10131000ACC1B3F1ABC1B2F1B96BB86BB76B0A0E2C
:10132000B66F0001F0DE03C0AEF102C0ADF101C046
:10133000ACF100C0ABF10101A92F7ED70001120072
:101340000101A3BF11D00F0E006EA23900160A0EC4
:10135000005C03E2300E002602D0A351002600C03C
:10136000B2F1000197DC01010F0EA2170A0EA25D77
:1013700002E2300E02D0A39FA351A227A2C1B2F174
:10138000000188DC120019C001F0CE50CFCF03F06D
:101390009D90026E1950015C04E0CE50CFCF03F057
:1013A00001D0025003C000F019C001F01AC002F0D1
:1013B0001BC003F01C50E83203320232013200320B
:1013C000E8320332023201320032E83203320232B2
:1013D000013200329D8032EF0BF0E9500101AA6F1B
:1013E0003B0EB16F9A0EB06FCA0EAF6FAE6B0A0EA6
:1013F000AC6FD882010EEA6EA60EE96EA9C1B5F1F6
:10140000A8C1B4F1A7C1B3F1A6C1B2F1B1C1B9F19C
:10141000B0C1B8F1AFC1B7F1AEC1B6F1000173DE32
:101420000150005213E10101AC51010AD8A402D0CD
:1014300000010CD0AA510CE00F0BAC5D01E00FE2F3
:10144000AABF0DD0AABD04D0200E03D00101AA6B03
:10145000300E002600C0B2F100011CDC0101D89260
:10146000B1C1B5F1B0C1B4F1AFC1B3F1AEC1B2F128
:10147000B96BB86BB76B0A0EB66F000144DE03C0E0
:10148000B1F102C0B0F101C0AFF100C0AEF1010195
:10149000AC2FAFD7000150EF0BF0DA0E0101A16FB6
:1014A0000F0EA06F490E9F6F800E9E6FA46B000100
:1014B00049EC05F00101A56BA46BA76B1E0EA66F8E
:1014C000000137EC05F0F80E0101A36FA26BA56BCC
:1014D000A46B000157D5010E0101A26F00015CDD74
:1014E0004E0EF66E070EF76E60DD0101A569E00E87
:1014F000A46F000140EC05F0020E0101A26F000193
:101500004BDD5E0EF66E070EF76E4FDD070E010126
:10151000A56FE00EA46F000140EC05F0030E010181
:10152000A26F000139DD6E0EF66E070EF76E3DDD1F
:101530000101A56B1F0EA46F000140EC05F0040E25
:101540000101A26F000128DD890EE96E250E01015F
:10155000A56F520EA46F1A0EA36F890EA26F020E12
:10156000A66F00011ADE060E0101A26FFA0EA56F2A
:101570000001EDEC03F00101A22FF8D7A56BA46BDD
:10158000A76BA66B000137EC05F00101A569A46902
:10159000000140EC05F00101A26B0001FDDC7E0EB4
:1015A000F66E070EF76E01DD010E0101A26F00015C
:1015B000F3DC070E0101A56FE00EA46F000140EC03
:1015C00005F0070EE96EA1C1A5F1A0C1A4F19FC16C
:1015D000A3F19EC1A2F1060E0101A66F0001DDDD9F
:1015E0008C0EF66E070EF76EE0DC980EF66E070EA8
:1015F000F76EDBDC840E0101A26F370EA36F0001D2
:101600009FDE5F0E0101A26F370EA36F000198DE0F
:10161000ED0E0101A26F370EA36F000191DE9C0E4B
:10162000F66E070EF76EC1DCAA0EF66E070EF76EA9
:10163000BCDC0101A569A469000140EC05F0AE0E17
:10164000F66E070EF76EB1DCC00EF66E070EF76E83
:10165000ACDCF80E0101A56F1F0EA46F000140EC79
:1016600005F091D6010101C0A2F102C0A3F103C0AF
:10167000A4F1A56BA533A433A333A233A533A433BC
:10168000A333A2333F0EA517410EE96EA5C1A9F100
:10169000A4C1A8F1A3C1A7F1A2C1A6F100019DD6E2
:1016A0000101A569A469000140EC05F0D00EF66EB9
:1016B000070EF76E7ADC18EF1BF01D500101DA5DA2
:1016C0003CE21E50DB5D39E2DC5337E0DEC1DFF186
:1016D000DDC1E0F11D50DA5D03E21E50DB5D01E388
:1016E0002CD0DC51DA25FF0F1D5C01E003E2DA515A
:1016F0001D5CDC6F000102EC00F0DAC1E1F1DBC13E
:10170000E2F1DCC1E3F1010E0101E46F000160ECE4
:1017100005F00101DC51DC07000A0BE0DFC1E6F156
:10172000000111EC04F0E0C1E6F111EC04F0F1D796
:101730000101000103EC00F00101000112000101B0
:10174000DD51DF19800BE16FDDAF05D0DC1FDD1F40
:10175000DC2BD8B4DD2BDFAF05D0DE1FDF1FDE2B87
:10176000D8B4DF2B016A026A006A036ADF5102E122
:10177000DE5118E0100EE06FD890DC37DD37003610
:101780000336DF51035C02E1DE51005C07E3DE510A
:10179000005ED8A00306DF51035ED8800136023612
:1017A000E02FEAD7E1AF05D0011E021E012AD8B40E
:1017B000022A000112000101CB91C351C75D006EE6
:1017C000C451C859036E00C0DCF1DD6F036E0050D8
:1017D000DDAF08D0000ED880DC55006E000EDD5560
:1017E000036E0050DC6F03C0DDF1C151C55D006EBA
:1017F000C251C659036E00C0DEF1DF6F036E0050A8
:10180000DFAF08D0000ED880DE55006E000EDF5529
:10181000036E0050016E0350DD5D05E303E1DC5112
:10182000015C01E2CB81CBA118D0C2C1CDF1C1C115
:10183000CCF1C4C1C2F1C3C1C1F1CDC1C4F1CCC1AD
:10184000C3F1C6C1CFF1C5C1CEF1C8C1C6F1C7C190
:10185000C5F1CFC1C8F1CEC1C7F1C651C25D1CE30D
:1018600003E1C151C55D18E2C2C1D1F1C1C1D0F1DE
:10187000C6C1C2F1C5C1C1F1D1C1C6F1D0C1C5F166
:10188000C4C1D3F1C3C1D2F1C8C1C4F1C7C1C3F14E
:10189000D3C1C8F1D2C1C7F1C151C55D006EC251FB
:1018A000C65900C0D4F1D56FC351C75D006EC45195
:1018B000C859036E00C0DCF1DD6F036E0050DDAF70
:1018C00008D0000ED880DC55006E000EDD55036E8A
:1018D0000050D66F03C0D7F1D5C1DDF1D4C1DCF122
:1018E000DF6B020EDE6F00012ADF02C0D9F101C0FA
:1018F000D8F10101C451C85D08E303E1C751C35DDC
:1019000004E2DB6B010EDA6F02D0DB69DA69C251E7
:10191000C65D35E303E1C151C55D31E3CBA10DD017
:10192000C3C1DCF1C1C1DDF1CAC1DFF1C9C1DEF162
:1019300000019AEC05F00CD00101C1C1DCF1C3C17A
:10194000DDF1CAC1DFF1C9C1DEF100019AEC05F099
:101950000101D651D85FD751D95BD9AF0CD0DA513C
:10196000C325016EDB51C42101C0C3F1C46FD45142
:10197000D827D551D923C12BD8B4C22BC8D7000141
:101980003CEF0DF00101B751B35D2FE1B851B45DEB
:101990002CE1BA51B65D10E303E1B551B95D0CE23B
:1019A000B6C1BEF1B5C1BDF1BAC1B6F1B9C1B5F1AB
:1019B000BEC1BAF1BDC1B9F1B551B95DC16FB65182
:1019C000BA59C26F010EC127000EC223B3C1D1F1B3
:1019D000B5C1D2F1C1C1D3F1BCC1D5F1BBC1D4F104
:1019E000000112EC06F048D00101B951B55D2EE1BD
:1019F000BA51B65D2BE1B851B45D10E303E1B351C8
:101A0000B75D0CE2B4C1C0F1B3C1BFF1B8C1B4F16C
:101A1000B7C1B3F1C0C1B8F1BFC1B7F1B351B75D40
:101A2000C16FB451B859C26F010EC127000EC22355
:101A3000B3C1DAF1B5C1DBF1C1C1DCF1BCC1DEF18A
:101A4000BBC1DDF1000139DE17D00101B4C1C2F123
:101A5000B3C1C1F1B6C1C4F1B5C1C3F1B8C1C6F1DA
:101A6000B7C1C5F1BAC1C8F1B9C1C7F1BCC1CAF1AA
:101A7000BBC1C9F100019FD612000101A06B1D502E
:101A8000A05D16E2010E1E5CA26FB46BB36BB66B69
:101A9000B56BB86BA0C1B7F1BA6BB96F9FC1BCF1A0
:101AA0009EC1BBF100016EDF060E0101A027E7D742
:101AB000A16B1E50A15D16E2010E1D5CA26FB46BFE
:101AC000B36BB66BB56BB86BB76FBA6BA1C1B9F13D
:101AD0009FC1BCF19EC1BBF1000154DF060E0101A4
:101AE000A127E7D7A06B1D50A05D1AE2010E1D5C77
:101AF000A26F010E1E5CA36FB46BA2C1B3F1B66BF3
:101B0000B56BB86BA0C1B7F1BA6BB96F9FC1BCF12F
:101B10009EC1BBF1000136DF060E0101A027E3D70D
:101B2000A16B1E50A15D16E2010E1D5CA26FB46B8D
:101B3000B36FB66BB56BB86BB76BBA6BA1C1B9F1CC
:101B40009FC1BCF19EC1BBF100011CDF060E01016B
:101B5000A127E7D7A06B1D50A05D16E2010E1E5C09
:101B6000A26FB46BB36BB66BB56FB86BA0C1B7F1B6
:101B7000BA6BB96B9FC1BCF19EC1BBF1000102DF22
:101B8000060E0101A027E7D7A16B1E50A15D1AE246
:101B9000010E1E5CA26F010E1D5CA36FB46BB36BD4
:101BA000B66BA2C1B5F1B86BB76FBA6BA1C1B9F191
:101BB0009FC1BCF19EC1BBF10001E4DE060E010134
:101BC000A127E3D7A06B1D50A05D1AE2010E1D5C9A
:101BD000A26F010E1E5CA36FB46BA2C1B3F1B66B12
:101BE000B56FB86BA0C1B7F1BA6BB96B9FC1BCF14F
:101BF0009EC1BBF10001C6DE060E0101A027E3D79E
:101C0000A16B1E50A15D1AE2010E1D5CA26F010EB8
:101C10001E5CA36FB46BA2C1B3F1B66BB56FB86BAA
:101C2000B76BBA6BA1C1B9F19FC1BCF19EC1BBF149
:101C30000001A8DE060E0101A127E3D7000144EF51
:101C40001BF00101A36B1E50A35D0FE2DA6BA3C171
:101C5000DBF11DC0DCF19FC1DEF19EC1DDF10001B1
:101C60002CDD050E0101A327EED7A26B1D50A25D4E
:101C700010E2A2C1D1F1D26B1EC0D3F1A1C1D5F146
:101C8000A0C1D4F1000112EC06F0050E0101A2275B
:101C9000EDD7000158EF1BF0A5C1DAF1A7C1DBF1C8
:101CA000A9C1DCF1AEC1DEF1ADC1DDF106DD01019E
:101CB000AB51A725AF6FAC51A821B06F010EAF5F3C
:101CC000000EB05BA5C1DAF1AFC1DBF1A9C1DCF157
:101CD000AEC1DEF1ADC1DDF10001EFDCA5C1D1F196
:101CE000A7C1D2F1ABC1D3F1AEC1D5F1ADC1D4F131
:101CF00012EC06F00101A951A525AF6FAA51A6214A
:101D0000B06F010EAF5F000EB05BAFC1D1F1A7C1E4
:101D1000D2F1ABC1D3F1AEC1D5F1ADC1D4F1000167
:101D200012EC06F012000101A06B1D50A05D22E232
:101D3000D8901D30A16FD890A031A15FD8901E30EF
:101D4000A26FD890A031A25FA66BA1C1A5F1A86B2C
:101D5000A2C1A7F1AA6BA0C1A9F1AC6BA0C1ABF164
:101D60009FC1AEF19EC1ADF1000196DF060E0101EB
:101D7000A027DBD700016AEF1BF0010E1D5C0101FB
:101D8000A26FA25106083EE2D8901D30A36FD890F2
:101D9000A231A35FD8901E30A46FD890A231A45F67
:101DA000A3C1BAF1A4C1BBF1A2C1BCF1A2C1BDF1F2
:101DB0009FC1BFF19EC1BEF10001BFEC05F0D890FC
:101DC0001D300101A36FD890A231A35FD8901E30BF
:101DD000A46FD890A231A45FA66BA3C1A5F1A86B94
:101DE000A4C1A7F1AA6BA2C1A9F1AC6BA2C1ABF1CE
:101DF000A1C1AEF1A0C1ADF100014EDF060E01019F
:101E0000A25FBFD700017FEF1BF00101DB51DD199D
:101E1000800BDF6FDBAF05D0DA1FDB1FDA2BD8B406
:101E2000DB2BDDAF05D0DC1FDD1FDC2BD8B4DD2BB9
:101E3000DA51DC03F3CF01F0F4CF00F0DD03F3500F
:101E40000026DB51DC03F3500020026EDFAF05D02B
:101E5000011E021E012AD8B4022A00011200010E3E
:101E6000D8800101B655006E000EB755036E00C054
:101E7000BDF1BE6FC06B010EBF6FCC69FE0ECB6FA4
:101E8000B7C1CEF1B6C1CDF100014FEC05F002C0F3
:101E9000C2F1010101C0C1F1C46BC36BB7C1C6F18E
:101EA000B6C1C5F1C4C1C8F1C3C1C7F1C6C1CAF149
:101EB000C5C1C9F1B92BD8B4BA2BC4AF03D0C6AFD2
:101EC0000CD002D0C6BFFED0C451C65DD8A0FAD097
:101ED00004E1C551C35DD8B0F5D0BEBF0CD0C5512B
:101EE000D8B4C607C507020EC127000EC223C151D0
:101EF000BD27C251BE23C32BD8B4C42B020EBF27AB
:101F0000000EC023BF51BD27C051BE23010EC52501
:101F1000016E000EC621036E0150C4AF03D003AEA4
:101F20000AD002D003BE63D0C451035C60E303E176
:101F30000150C35D5CE2B8A12CD0C351B225CB6F78
:101F4000C451B321CC6FC551B45DCD6FC651B559E5
:101F5000CE6FDB6B020EDA6FC6C1DDF1C5C1DCF1FD
:101F6000000153DF02C0D0F101C0CFF10101B9512E
:101F7000CF27BA51D023CBC1D1F1CDC1D2F1CFC13E
:101F8000D3F1BCC1D5F1BBC1D4F1000112EC06F014
:101F90000101B8A32CD0C351B25DCB6FC451B3596A
:101FA000CC6FC551B45DCD6FC651B559CE6FDB6BEB
:101FB000020EDA6FC6C1DDF1C5C1DCF1000125DF1B
:101FC00002C0D0F101C0CFF10101B951CF27BA5100
:101FD000D023CBC1D1F1CDC1D2F1CFC1D3F1BCC19E
:101FE000D5F1BBC1D4F1000112EC06F00101C951D9
:101FF000C55D03E1CA51C65D60E0B8A12CD0C951EE
:10200000B225CB6FCA51B321CC6FC751B45DCD6F30
:10201000C851B559CE6FDB6B020EDA6FC8C1DDF166
:10202000C7C1DCF10001F1DE02C0D0F101C0CFF187
:102030000101B951CF27BA51D023CBC1D1F1CDC1C4
:10204000D2F1CFC1D3F1BCC1D5F1BBC1D4F10001F4
:1020500012EC06F00101B8A32CD0C951B25DCB6FD0
:10206000CA51B359CC6FC751B45DCD6FC851B55982
:10207000CE6FDB6B020EDA6FC8C1DDF1C7C1DCF1D8
:102080000001C3DE02C0D0F101C0CFF10101B9519E
:10209000CF27BA51D023CBC1D1F1CDC1D2F1CFC11D
:1020A000D3F1BCC1D5F1BBC1D4F1000112EC06F0F3
:1020B0000101C6C1CAF1C5C1C9F1C4C1C8F1C3C1DA
:1020C000C7F1FBD6000112000101A751A55DAB6F5E
:1020D000A851A659AC6FD890A735AD6FA835AE6F93
:1020E000010EAD27000EAE23A3C1D1F1ABC1D2F1D9
:1020F000ADC1D3F1AAC1D5F1A9C1D4F1000112EC4F
:1021000006F0A4C1B3F1A3C1B2F1A6C1B5F1A5C156
:10211000B4F1A8C1B7F1A7C1B6F1030E0101B86FC0
:10212000BA6BB96BAAC1BCF1A9C1BBF1000197DEC2
:10213000B4EF10F09EC1A1F11D500101A15D1FE29D
:102140009EC1A2F11E50A25D14E2A46BA1C1A3F135
:10215000A66BA2C1A5F1A86B9EC1A7F1A0C1AAF16F
:102160009FC1A9F10001B0D7D89001019E35A227E7
:10217000E9D7D8909E35A1270001DED701010001E3
:1021800092EF1BF0010ED8800101A955006E000EE0
:10219000AA55036E00C0ADF1AE6FB06B010EAF6F0C
:1021A000CC69FE0ECB6FAAC1CEF1A9C1CDF1000161
:1021B0004FEC05F002C0B2F1010101C0B1F1B46B06
:1021C000B36BAAC1B6F1A9C1B5F1A951A725B76FE3
:1021D000AA51A821B86FA5C1DCF1B7C1DDF1ACC12E
:1021E000DFF1ABC1DEF100019AEC05F00101A9516C
:1021F000A75DB76FAA51A859B86FA5C1DCF1B7C1E7
:10220000DDF1ACC1DFF1ABC1DEF100019AEC05F00C
:102210000101A951A525B76FAA51A621B86FB7C171
:10222000DCF1A7C1DDF1ACC1DFF1ABC1DEF1000132
:102230009AEC05F00101A951A55DB76FAA51A65905
:10224000B86FB7C1DCF1A7C1DDF1ACC1DFF1ABC143
:10225000DEF100019AEC05F00101B4AF03D0B6AF96
:102260000CD002D0B6BFE3D0B451B65DD8A0DFD059
:1022700004E1B551B35DD8B0DAD0AEBF0CD0B551E2
:10228000D8B4B607B507020EB127000EB223B1517C
:10229000AD27B251AE23B32BD8B4B42B020EAF2767
:1022A000000EB023AF51AD27B051AE23B351A525D9
:1022B000B76FB451A621B86FB551A725B96FB65104
:1022C000A821BA6FB7C1DCF1B9C1DDF1ACC1DFF152
:1022D000ABC1DEF100019AEC05F00101B351A55D3F
:1022E000B76FB451A659B86FB551A725B96FB6519C
:1022F000A821BA6FB7C1DCF1B9C1DDF1ACC1DFF122
:10230000ABC1DEF100019AEC05F00101B351A52546
:10231000B76FB451A621B86FB551A75DB96FB6516B
:10232000A859BA6FB7C1DCF1B9C1DDF1ACC1DFF1B9
:10233000ABC1DEF100019AEC05F00101B351A55DDE
:10234000B76FB451A659B86FB551A75DB96FB65103
:10235000A859BA6FB7C1DCF1B9C1DDF1ACC1DFF189
:10236000ABC1DEF100019AEC05F00101B551A525E4
:10237000B76FB651A621B86FB351A725B96FB45145
:10238000A821BA6FB7C1DCF1B9C1DDF1ACC1DFF191
:10239000ABC1DEF100019AEC05F00101B551A55D7C
:1023A000B76FB651A659B86FB351A725B96FB451DD
:1023B000A821BA6FB7C1DCF1B9C1DDF1ACC1DFF161
:1023C000ABC1DEF100019AEC05F00101B551A52584
:1023D000B76FB651A621B86FB351A75DB96FB451AD
:1023E000A859BA6FB7C1DCF1B9C1DDF1ACC1DFF1F9
:1023F000ABC1DEF100019AEC05F00101B551A55D1C
:10240000B76FB651A659B86FB351A75DB96FB45144
:10241000A859BA6FB7C1DCF1B9C1DDF1ACC1DFF1C8
:10242000ABC1DEF100019AEC05F016D70101000105
:1024300050EF12F00101A26BA16BA66B1DC0A5F1BC
:102440009E511D24016E000EA621036EA251035C55
:1024500034E303E10150A15D30E2A46BA36BA66BF2
:102460001EC0A5F19E511E24016E000EA621036E12
:10247000A451035C1CE303E10150A35D18E2A2C177
:10248000A6F1A1C1A5F1A4C1A8F1A3C1A7F1AA6BAE
:102490009EC1A9F1A0C1ACF19FC1ABF1000172D600
:1024A000D89001019E35A327000EA423D8D7D89039
:1024B0009E35A127000EA223C0D700019AEF1BF082
:1024C000010ED8800101BC55006E000EBD55036E93
:1024D00000C0C1F1C26FC46B010EC36FCC69FE0EA8
:1024E000CB6FBDC1CEF1BCC1CDF100014FEC05F009
:1024F00002C0C6F1010101C0C5F1C86BC76BBDC107
:10250000CAF1BCC1C9F1C8AF03D0CAAF0CD002D068
:10251000CABFEBD0C851CA5DD8A0E7D004E1C95109
:10252000C75DD8B0E2D0C2BF0CD0C951D8B4CA0779
:10253000C907020EC527000EC623C551C127C651C3
:10254000C223C72BD8B4C82B020EC327000EC42346
:10255000C351C127C451C223BEA530D0C751B8252D
:10256000CB6FC851B921CC6FC951BA25CD6FCA51B3
:10257000BB21CE6FCBC1DCF1CDC1DDF1C0C1DFF13C
:10258000BFC1DEF100019AEC05F00101C951B82587
:10259000CB6FCA51B921CC6FC751BA25CD6FC85185
:1025A000BB21CE6FCBC1DCF1CDC1DDF1C0C1DFF10C
:1025B000BFC1DEF100019AEC05F00101BEA330D0ED
:1025C000C751B825CB6FC851B921CC6FC951BA5D7D
:1025D000CD6FCA51BB59CE6FCBC1DCF1CDC1DDF19E
:1025E000C0C1DFF1BFC1DEF100019AEC05F00101CD
:1025F000C951B825CB6FCA51B921CC6FC751BA5D4B
:10260000CD6FC851BB59CE6FCBC1DCF1CDC1DDF16F
:10261000C0C1DFF1BFC1DEF100019AEC05F001019C
:10262000BEA730D0C951B85DCB6FCA51B959CC6F74
:10263000C751BA25CD6FC851BB21CE6FCBC1DCF1DC
:10264000CDC1DDF1C0C1DFF1BFC1DEF100019AEC07
:1026500005F00101C751B85DCB6FC851B959CC6FB6
:10266000C951BA25CD6FCA51BB21CE6FCBC1DCF1A8
:10267000CDC1DDF1C0C1DFF1BFC1DEF100019AECD7
:1026800005F00101BEA130D0C951B85DCB6FCA5170
:10269000B959CC6FC751BA5DCD6FC851BB59CE6F18
:1026A000CBC1DCF1CDC1DDF1C0C1DFF1BFC1DEF1D5
:1026B00000019AEC05F00101C751B85DCB6FC8511C
:1026C000B959CC6FC951BA5DCD6FCA51BB59CE6FE4
:1026D000CBC1DCF1CDC1DDF1C0C1DFF1BFC1DEF1A5
:1026E00000019AEC05F001010ED700011200010172
:1026F000AB51AD5D08E303E1AC51AA5D04E2ABC1AF
:1027000003F0AA5103D0ADC103F0AC51B46F03C0C4
:10271000B5F103C0DDF1DC6FDF6B020EDE6F00018F
:102720009FEC0BF002C0B3F101C0B2F10101B3BFE5
:1027300007D0B351AF5D08E303E1AE51B25D04E2EF
:10274000B3C1AFF1B2C1AEF1AE51A625B46FAF5176
:10275000A721B56FD890AE35026EAF35036E02502B
:10276000AA5DB66F0350AB59B76FB4C1DAF1A8C117
:10277000DBF1B6C1DCF1B1C1DEF1B0C1DDF10001C8
:102780005DEC0BF00101AE51A625B46FAF51A7214E
:10279000B56FAC51A825B66FAD51A921B76F010E29
:1027A000B65F000EB75BD890AE35026EAF35036EE4
:1027B0000250AA5DB86F0350AB59B96FB4C1DAF1DA
:1027C000B6C1DBF1B8C1DCF1B1C1DEF1B0C1DDF100
:1027D00000015DEC0BF00101AE51A825B46FAF51C3
:1027E000A921B56FD890AE35026EAF35036E025099
:1027F000AC5DB66F0350AD59B76FA6C1D1F1B4C18E
:10280000D2F1B6C1D3F1B1C1D5F1B0C1D4F100015B
:1028100012EC06F00101AA51A625B46FAB51A72115
:10282000B56F010EB45F000EB55BAE51A825B66F53
:10283000AF51A921B76FD890AE35026EAF35036E98
:102840000250AC5DB86F0350AD59B96FB4C1D1F14E
:10285000B6C1D2F1B8C1D3F1B1C1D5F1B0C1D4F193
:10286000000112EC06F00101AE51A625B46FAF5184
:10287000A721B56FAE51A825B66FAF51A921B76F8B
:10288000B5C1B9F1B4C1B8F1BB6FB6C1BAF1AFC14E
:10289000BDF1AEC1BCF1010EBE6FB1C1C0F1B0C19E
:1028A000BFF100010DDE0101AA51A625B46FAB51A5
:1028B000A721B56FAE51B45FAF51B55B010EB45FE8
:1028C000000EB55BAE51A825B66FAF51A921B76F09
:1028D000B5C1B9F1B4C1B8F1BB6FB6C1BAF1AFC1FE
:1028E000BDF1AEC1BCF1020EBE6FB1C1C0F1B0C14D
:1028F000BFF10001E5DD0101AA51A625B46FAB517E
:10290000A721B56FAE51B45FAF51B55B010EB45F97
:10291000000EB55BAC51A825B66FAD51A921B76FBC
:10292000AE51B65FAF51B75B010EB65F000EB75B3D
:10293000B5C1B9F1B4C1B8F1B7C1BBF1B6C1BAF113
:10294000AFC1BDF1AEC1BCF1040EBE6FB1C1C0F1EB
:10295000B0C1BFF10001B4DD0101AE51A625B46FD5
:10296000AF51A721B56FAC51A825B66FAD51A921C4
:10297000B76FAE51B65FAF51B75B010EB65F000ED9
:10298000B75BB5C1B9F1B4C1B8F1B7C1BBF1B6C15C
:10299000BAF1AFC1BDF1AEC1BCF1080EBE6FB1C19D
:1029A000C0F1B0C1BFF100018BDD00EF15F00101F6
:1029B0009F6B640E9E6FA16BA151040838E3A26B5C
:1029C000A36B020E1D5CA46F020E1E5CA56FA06BB4
:1029D000A0511A0825E3A76BA2C1A6F1A96BA3C158
:1029E000A8F1AB6BA4C1AAF1AD6BA5C1ACF1AF6B03
:1029F000050EAE6F9FC1B1F19EC1B0F1000177D657
:102A0000020E0101A227030EA327040EA45F060EE7
:102A1000A55F4C0E9E27040E9F23010EA027D8D73A
:102A2000640E9E27000E9F23010EA127C5D700012B
:102A3000A8EF1BF0A6C1B4F1A5C1B3F1A8C1B6F1CE
:102A4000A7C1B5F1AAC1B8F1A9C1B7F1ACC1BAF13A
:102A5000ABC1B9F1B2C1BCF1B1C1BBF1C2EC0CF078
:102A6000AAC1B4F1A9C1B3F1ACC1B6F1ABC1B5F122
:102A7000AEC1B8F1ADC1B7F1B0C1BAF1AFC1B9F1F2
:102A8000B2C1BCF1B1C1BBF1C2EC0CF0AEC1B4F14A
:102A9000ADC1B3F1B0C1B6F1AFC1B5F1A6C1B8F1E6
:102AA000A5C1B7F1A8C1BAF1A7C1B9F1B2C1BCF1D2
:102AB000B1C1BBF1C2EC0CF087EF15F0F80E0101CB
:102AC0009F6F9E6BD8901D30A16F010E1E5CA26F90
:102AD000A36B1DC0A4F1A06BA0511B0823E3A66B40
:102AE000A1C1A5F1A86BA3C1A7F1AA6BA3C1A9F1CC
:102AF000AC6BA2C1ABF1AE6BA4C1ADF1B06BA2C126
:102B0000AFF19FC1B2F19EC1B1F1000193D7040EA4
:102B10000101A25FA327A45F3C0E9E27000E9F2306
:102B2000A02BDAD70001B6EF1BF00101A351A55D80
:102B300008E303E1A451A25D04E2A3C103F0A251A2
:102B400003D0A5C103F0A451AC6F03C0ADF103C025
:102B5000DDF1DC6FDF6B020EDE6F00019FEC0BF02E
:102B600002C0ABF101C0AAF10101ABBF07D0AB516C
:102B7000A75D08E303E1A651AA5D04E2ABC1A7F19A
:102B8000AAC1A6F1A6519E25AC6FA7519F21AD6F9A
:102B9000D890A635026EA735036E0250A25DAE6FC7
:102BA0000350A359AF6FACC1BAF1A0C1BBF1AEC124
:102BB000BCF1A4C1BDF1A9C1BFF1A8C1BEF1000122
:102BC000BFEC05F00101A2519E25AC6FA3519F21DE
:102BD000AD6FA651AC5FA751AD5B010EAC5F000EAF
:102BE000AD5BA651A025AE6FA751A121AF6FD890C4
:102BF000A635026EA735036E0250A45DB06F035078
:102C0000A559B16F010EB05F000EB15BADC1B3F15C
:102C1000ACC1B2F1AFC1B5F1AEC1B4F1A7C1B7F16A
:102C2000A6C1B6F1010EB86FB1C1BAF1B0C1B9F128
:102C3000A9C1BCF1A8C1BBF100012FEC0FF001014B
:102C4000A6519E25AC6FA7519F21AD6FA651A0251F
:102C5000AE6FA751A121AF6FD890A635026EA735F0
:102C6000036E0250A45DB06F0350A559B16F010E01
:102C7000B05F000EB15BADC1B3F1ACC1B2F1AFC199
:102C8000B5F1AEC1B4F1A7C1B7F1A6C1B6F1020E5C
:102C9000B86FB1C1BAF1B0C1B9F1A9C1BCF1A8C155
:102CA000BBF100012FEC0FF01200D8B204D0010EDE
:102CB000EA6EE40EE96E0101DF51E319800BE96F62
:102CC000DFAF0BD0DC1FDD1FDE1FDF1FDC2BD8B416
:102CD000DD2BD8B4DE2BD8B4DF2BE3AF0BD0E01F55
:102CE000E11FE21FE31FE02BD8B4E12BD8B4E22BA5
:102CF000D8B4E32B006A016A026A036AE46BE56BED
:102D0000E66BE76BE351E211E111E0112CE0200EDC
:102D1000E86FD890DC37DD37DE37DF37E437E5376B
:102D2000E637E737E351E75D08E1E251E65D05E1AB
:102D3000E151E55D02E1E051E45D0FE3E051E45F64
:102D4000E151D8A0E13DE55FE251D8A0E23DE65F68
:102D5000E351D8A0E33DE75FD88000360136023664
:102D60000336E82FD6D7E9AF0BD0001E011E021E96
:102D7000031E002AD8B4012AD8B4022AD8B4032AE0
:102D8000E4C1EFFFE5C1ECFFE6C1ECFFE7C1ECFFFA
:102D9000000112000101A551A15D1CE303E1A05156
:102DA000A45D18E2A1C1B5F1A0C1B4F1A5C1A1F122
:102DB000A4C1A0F1B5C1A5F1B4C1A4F19FC1B7F1FF
:102DC0009EC1B6F1A3C19FF1A2C19EF1B7C1A3F10B
:102DD000B6C1A2F1A951A55D1CE303E1A451A85D10
:102DE00018E2A9C1B9F1A8C1B8F1A5C1A9F1A4C15E
:102DF000A8F1B9C1A5F1B8C1A4F1A7C1BBF1A6C1A1
:102E0000BAF1A3C1A7F1A2C1A6F1BBC1A3F1BAC196
:102E1000A2F1A551A15D1CE303E1A051A45D18E25C
:102E2000A1C1BDF1A0C1BCF1A5C1A1F1A4C1A0F196
:102E3000BDC1A5F1BCC1A4F19FC1BFF19EC1BEF14E
:102E4000A3C19FF1A2C19EF1BFC1A3F1BEC1A2F176
:102E5000A851A05D5AE1A951A15D57E19FC1AFF111
:102E60009EC1AEF1AFC1ADF1AEC1ACF1ADBF0CD002
:102E7000A351AD5D09E303E1AC51A25D05E2A3C13D
:102E8000ADF1A2C1ACF10DD0AFBF07D0AF51A35D82
:102E900008E303E1A251AE5D04E2A3C1AFF1A2C118
:102EA000AEF1ADBF0CD0A751AD5D09E303E1AC516C
:102EB000A65D05E2A7C1ADF1A6C1ACF10DD0AFBFD3
:102EC00007D0AF51A75D08E303E1A651AE5D04E270
:102ED000A7C1AFF1A6C1AEF1AC51AE5DD86FAD5197
:102EE000AF59D96F010ED827000ED923ACC1DAF142
:102EF000A0C1DBF1D8C1DCF1ABC1DEF1AAC1DDF1CB
:102F000000015DEC0BF038D201019E51A25D006E14
:102F10009F51A359036E00C0C0F1C16FA051A45DC1
:102F2000006EA151A559036E00C0C2F1C36F9E513E
:102F3000A65D006E9F51A759036E00C0C4F1C56F16
:102F4000A051A85D006EA151A959036E00C0C6F141
:102F5000C76FA251A65D006EA351A75900C0C8F16A
:102F6000C96FA451A85D006EA551A95900C0CAF14E
:102F7000CB6FCF6BCE6BCD6BCC6BD36BD26BD16B7E
:102F8000D06BA851A45D08E1A951A55D05E1A5C1DB
:102F9000B3F1A4C1B2F108D0010EA45D006E000E21
:102FA000A55900C0B2F1B36FA1C1B1F1A0C1B0F198
:102FB000B1AF03D0B3AF0CD002D0B3BFC5D0B151C5
:102FC000B35DD8A0C1D004E1B051B25DD8A0BCD0EF
:102FD000C2C100F0C3C101F0026A036A01AE02D0AF
:102FE0000206030603C0DBF102C0DAF101C0D9F129
:102FF00000C0D8F1D892CFC1DFF1CEC1DEF1CDC192
:10300000DDF1CCC1DCF103C0E3F102C0E2F101C0AB
:10301000E1F100C0E0F1000148DE01019E5100260F
:103020009F510122000E0222032201C0ADF100C017
:10303000ACF1C6C100F0C7C101F0026A036A01AE7B
:1030400002D00206030603C0DBF102C0DAF101C0C0
:10305000D9F100C0D8F1D892D3C1DFF1D2C1DEF1ED
:10306000D1C1DDF1D0C1DCF103C0E3F102C0E2F176
:1030700001C0E1F100C0E0F1000117DE01019E5145
:1030800000269F510122000E0222032201C0AFF14F
:1030900000C0AEF1C0C100F0C1C101F0026A036A14
:1030A00001AE02D0020603060050CC270150CD230A
:1030B0000250CE230350CF23C4C100F0C5C101F09C
:1030C000026A036A01AE02D0020603060050D0274E
:1030D0000150D1230250D2230350D323AFAF03D0EA
:1030E000ADAF0AD002D0ADBF13D0AF51AD5D10E38C
:1030F00003E1AC51AE5D0CE2ADC1D5F1ACC1D4F190
:10310000AFC1ADF1AEC1ACF1D5C1AFF1D4C1AEF13B
:10311000AC51AE5DD86FAD51AF59D96F010ED82704
:10312000000ED923ACC1DAF1B0C1DBF1D8C1DCF1BA
:10313000ABC1DEF1AAC1DDF100015DEC0BF00101D4
:10314000B02BD8B4B12B34D7A451B05D006EA551CB
:10315000B159036E00C0D8F1D96FC9C1DBF1C8C144
:10316000DAF1DD6F00C0DCF1000105EC0FF002C008
:1031700003F001C000F002C001F0026A036A01AE70
:1031800002D00206030603C0CFF102C0CEF101C097
:10319000CDF100C0CCF10101A051B05D006EA15194
:1031A000B159036E00C0D8F1D96FC5C1DBF1C4C1FC
:1031B000DAF1DD6F00C0DCF1000105EC0FF002C0B8
:1031C00003F001C000F002C001F0026A036A01AE20
:1031D00002D00206030603C0D3F102C0D2F101C03F
:1031E000D1F100C0D0F10101B1BF09D0B151A95D49
:1031F000D8A0C1D004E1B051A85DD8A0BCD0CAC14C
:1032000000F0CBC101F0026A036A01AE02D00206EF
:10321000030603C0DBF102C0DAF101C0D9F100C03E
:10322000D8F1D892CFC1DFF1CEC1DEF1CDC1DDF151
:10323000CCC1DCF103C0E3F102C0E2F101C0E1F175
:1032400000C0E0F1000131DD0101A2510026A351CF
:103250000122000E0222032201C0ADF100C0ACF138
:10326000C6C100F0C7C101F0026A036A01AE02D014
:103270000206030603C0DBF102C0DAF101C0D9F196
:1032800000C0D8F1D892D3C1DFF1D2C1DEF1D1C1F3
:10329000DDF1D0C1DCF103C0E3F102C0E2F101C015
:1032A000E1F100C0E0F1000100DD01019E510026C6
:1032B0009F510122000E0222032201C0AFF100C083
:1032C000AEF1C8C100F0C9C101F0026A036A01AEE3
:1032D00002D0020603060050CC270150CD23025035
:1032E000CE230350CF23C4C100F0C5C101F0026A50
:1032F000036A01AE02D0020603060050D027015037
:10330000D1230250D2230350D323AFAF03D0ADAFAC
:103310000AD002D0ADBF13D0AF51AD5D10E303E1D1
:10332000AC51AE5D0CE2ADC1D7F1ACC1D6F1AFC1CD
:10333000ADF1AEC1ACF1D7C1AFF1D6C1AEF1AC5178
:10334000AE5DD86FAD51AF59D96F010ED827000EC1
:10335000D923ACC1DAF1B0C1DBF1D8C1DCF1ABC12A
:10336000DEF1AAC1DDF100015DEC0BF00101B02B33
:10337000D8B4B12B39D70001120001019F6B510E57
:103380009E6FA16B320EA06FA36B4E0EA26FA56B4A
:103390003C0EA46FA76B080EA66FA969A86900016F
:1033A00095EC15F001019F6B620E9E6FA16B3C0EB8
:1033B000A06FA36B620EA26FA56B640EA46FA76BC8
:1033C000920EA66FA96B500EA86FF80EAB6FAA6B8A
:1033D0000001E0DC020E01019E6FFA0EA56F0001F4
:1033E000EDEC03F001019E2FF8D79F6B510E9E6FFD
:1033F000A16B820EA06FA36B4E0EA26FA56B3C0E4D
:10340000A46FA76B080EA66FA969A869000195ECC7
:1034100015F001019F6B5F0E9E6FA16B8A0EA06F6E
:10342000A36B140EA26FA56B2D0EA46FA76B050ED8
:10343000A66F070EA96FE00EA86F000195EC15F0BE
:1034400001019F6B7D0E9E6FA16B8A0EA06FA36B17
:10345000140EA26FA56B2D0EA46FA76B050EA66FA1
:10346000070EA96FE00EA86F000195EC15F0020E93
:1034700001019E6FFA0EA56F0001EDEC03F0010152
:103480009E2FF8D79F6B620E9E6FA16B3C0EA06FB4
:10349000A36B620EA26FA56B640EA46FA76B920E56
:1034A000A66FA96B500EA86FAB6B1F0EAA6F000121
:1034B00071DC320E0101A56F0001EDEC03F001019A
:1034C0009F6B5F0E9E6FA16B8A0EA06FA36B140E95
:1034D000A26FA56B2D0EA46FA76B050EA66FF80E3D
:1034E000A96FA86B000195EC15F001019F6B7D0E93
:1034F0009E6FA16B8A0EA06FA36B140EA26FA56BBB
:103500002D0EA46FA76B050EA66FF80EA96FA86B02
:10351000000195EC15F001019F6B620E9E6FA16B8F
:103520003C0EA06FA36B620EA26FA56B640EA46F1E
:10353000A76B920EA66FA96B500EA86F070EAB6F0C
:10354000E00EAA6F000126DCC3EF1BF002EC00F0D6
:1035500001019E5302E0210E01D0200E9F6FE56F06
:10356000000119EC04F003EC00F01200F86AD09EA0
:10357000078E700ED36E9B8C9B9EC69A400EC76EB4
:10358000300EC66E949A948894961C6A1B6A1A6AC6
:10359000196ACD90370ECD6ECC6ACF6ACE6A000024
:1035A0009E909D80256A246A276A266A2968286871
:1035B0002B682A68010E2C6E2D802F6A2E6A0F014F
:1035C000386B396B3A6B3B6B3C6B776A786A796A1C
:1035D000C00EF21200010DEF05F0EA6A300EE96E3E
:1035E000020E026E6E0E016EF76A000EDEEC02F045
:1035F0000A000900EF6AF5CFEEFF012EFAD7022E7E
:10360000F8D70101A16B300EA06FA369A269000178
:10361000AAEF07F0040E01019E6FFA0EA56F0001DC
:10362000EDEC03F001019E2FF8D700014DEF0AF0F9
:10363000100E01019E6FFA0EA56F0001EDEC03F074
:1036400001019E2FF8D7D8901D309E6FD8901E3064
:103650009F6F9EC1DCF1DD6F070EDF6FE00EDE6F46
:1036600000019AEC05F0020E01019E6FFA0EA56FA3
:103670000001EDEC03F001019E2FF8D79F69E00EE9
:103680009E6F00013DEF0DF0020E01019E6FFA0EDC
:10369000A56F0001EDEC03F001019E2FF8D7F80EA5
:1036A0009F6F9E6BA16B1F0EA06F000121EF0EF0AC
:1036B000020E01019E6FFA0EA56F0001EDEC03F002
:1036C00001019E2FF8D7070E9F6FE00E9E6F00013D
:1036D00093EF0EF0020E01019E6FFA0EA56F00012E
:1036E000EDEC03F001019E2FF8D79F69E00E9E6F6D
:1036F000F80EA16F1F0EA06F0001BDEF0EF0020EBD
:1037000001019E6FFA0EA56F0001EDEC03F00101BF
:103710009E2FF8D70A0E9E6FA06B1F0E9F6F0001A1
:103720009AEF10F00A0E01019E6FA0699F690001D7
:103730001AEF12F0020E01019E6FFA0EA56F000142
:10374000EDEC03F001019E2FF8D70001D7EF14F044
:10375000020E01019E6FFA0EA56F0001EDEC03F061
:1037600001019E2FF8D700015EEF15F0020E010156
:103770009E6FFA0EA56F0001EDEC03F001019E2F84
:10378000F8D70001FAD5020E01019E6FFA0EA56F5F
:103790000001EDEC03F001019E2FF8D7010E9E6FA2
:1037A0000001D4DE020E01019E6FFA0EA56F00012A
:1037B000EDEC03F001019E2FF8D79E6B0001C6DEF1
:1037C000020E01019E6FFA0EA56F0001EDEC03F0F1
:0A37D00001019E2FF8D7E2D7030095
:04FFDC000901809601
:10FFE0001180FF3A81550A3601082A04000000F00A
:10FFF0002B040050014021800A13800A2980FFFF52
:020000040030CA
:0E00000000E8183C003F81000FC00FE00F40E9
:00000001FF
;PIC18F46K22
;CRC=B67D  CREATED="16-Mar-25 12:33"
