:1000000002308A00DE2A0000D434ED32A037753A7F
:1000100021004334E531EB39F536A02272396F39CE
:100020002100CE372039E539F037EE3965006639E1
:10003000EF36203AE832A0396537F3377200513095
:10004000840083130008031932280230F800F701F6
:10005000F70B2828F80B27289730F700F70B2E28E6
:10006000800B25280800571837288811382888154C
:10007000831688118312D7183F28081240280816C3
:1000800083160812831257194728881248288816A1
:10009000831688128312D7194F280813502808177F
:1000A00083160813000083120815831608115828B8
:1000B0005928831208118316081183120800D801E9
:1000C000831688150030831288190130D8048316EE
:1000D000081600308312081A0130F7000310F70DDC
:1000E0007708D8048316881600308312881A0130E6
:1000F000F700F70DF70DFC30F7057708D8048316E5
:10010000081700308312081B0130F700F70DF70DB8
:10011000F70DF830F7057708D8045808F8000800FC
:10012000831608110810881083120810831608100F
:1001300088150816881608178312881483168810E5
:1001400000008312081583160811000083125F2037
:100150007808D700081183160811000083120815CB
:1001600083160811B32883125F207808D60008117F
:100170008316081188110812881208138312570E6B
:10018000F700F030F70577085604F8007808D60035
:10019000D61FCC2883169828D408031DD128081010
:1001A000D2280814831608100000831288108316C2
:1001B0008810000083120811831608118312550E4F
:1001C000D6000F30D6055608D700332055080F3912
:1001D000D600D700332008002830CD000C30CE00E8
:1001E0000130CF000630D0000811831608118312A9
:1001F000081083160810831288108316881088113F
:100200000812881208130811081088100F30831282
:10021000D1001F200130CC004C08033C031C1829DE
:100220000330D70033200530D1001F20CC0A0C2921
:100230000230D70033200530D1001F20CC014C08FC
:10024000033C031C2F294D304C0784008313000806
:10025000D100D4015108D5009020CC0A1F298A1161
:100260000A123B2B510B352938294030D20039294D
:10027000D20101305002D20752088038D300D40195
:100280005308D500902008004F08073A0319522957
:100290000B3A03195729063A03195F29023A031941
:1002A00065296A290130D000D10032216F29D4019B
:1002B0000130D50090200230D1001F206F2901307D
:1002C000D0000230D10032216F29D4011030D50086
:1002D00090206F290130D4004F08D50090200800ED
:1002E00083160610831206101930D1001F20061441
:1002F0001030F700F70B7A290000831606148312DA
:100300008A110A12472B8E018F018E011530900041
:1003100006189D290F08FA000E08F7000F087A0248
:10032000031D8A297708CC007A08CD00CD08031D6B
:100330009D294C08633C031888290F08FA000E0811
:10034000F7000F087A02031D9D297708CC007A0870
:10035000CD00CD08031DB0294C08633C0318B42917
:100360000030F800E529E5298E018F018E01061C79
:10037000CC290F08FA000E08F7000F087A02031DB7
:10038000B9297708CC007A08CD00CD08031DCC2907
:100390004C08633C0318B7290F08FA000E08F70051
:1003A0000F087A02031DCC297708CC007A08CD000B
:1003B000CD08031DDF294C08633C0318E3290030F6
:1003C000F800E529E5290130F8008A110A12482BC6
:1003D000CD01401CEB29CC014C08073C031C4A2AE8
:1003E0008E018F018E0106180B2A0F08FA000E08E5
:1003F000F7000F087A02031DF5297708CE007A0866
:10040000CF00CF08031D082A4E08643C03180A2AAF
:1004100040140B2AF3298E018F018E01061C262A17
:100420000F08FA000E08F7000F087A02031D102AC1
:100430007708CE007A08CF00CF08031D232A4E0884
:10044000643C0318252A4014262A0E2A0F08FA00B5
:100450000E08F7000F087A02031D262A7708CE003F
:100460007A08CF00CF08031D392A4E08323C031802
:10047000482A4C08073CCE000130F7004E08F8002F
:100480000319462A0310F70DF80B422A7708CD040A
:10049000CC0AEC294D08F80008000B08CC008B139F
:1004A000831603178C170C1400000000831203132B
:1004B000CC1B8B1703170C087F390319A12A0313D0
:1004C000CC0003170D080313CD0003170F08031307
:1004D000CE004C08CF0044214D0803178D000313B4
:1004E0004E0803178F0003130B08CF008B138316DE
:1004F00003178C170C140000000083120313CF1B8A
:100500008B1703170C0D0E0D7F390319A12A031346
:10051000CC0003170D080313CD0003170F080313B6
:10052000CE004C08CF0044214D0803178D00031363
:100530004E0803178F008D0A03198F0A03134D2AE3
:10054000031703130800F801F901F701FA01510834
:10055000031DAD2A50080319C72A1030D20003101A
:10056000CE0DCF0DF70DFA0D51087A02031DBA2AF0
:1005700050087702031CC32A5008F702031CFA0331
:100580005108FA020314F80DF90DD20BAF2A080036
:1005900080080319DD2ACD010408CC004D10831B0F
:1005A0004D140008CF0044214C08840083134D18DB
:1005B0008317840A0319850AC82A080003081F390B
:1005C0008300713083168F0090010F088312401052
:1005D000CB01CA01831603170908C0398900031328
:1005E0001F129F12003003178800831287018801B1
:1005F0008901831354300313A0006530A1006D30CE
:10060000A2007030A3002030A4003D30A5002030AF
:10061000A6003030A700A8002E30A9003030AA0074
:100620002030AB004330AC002030AD00AE00AF0155
:100630005230B0004830B1002030B200B300B400F6
:100640003D30B5002030B6003030B700B8002E3055
:10065000B9003030BA002030BB002530BC0020305B
:10066000BD00BE00BF01713083168F0090010F08DE
:1006700083129001EC280C30CF0044210430CC00D0
:10068000FA30D1001F20CC0B402B40107029832959
:10069000F80803193D2CE8217808C300E821780800
:1006A000C400E8217808C100E8217808C200E821E8
:1006B0007808C5009001401C6D2B0C30CF00442100
:1006C0000530D0000130D1003221043003178D00F5
:1006D00000308F0003134D223C2C44084307410790
:1006E00042074502031D2E2CC9014308C8004808D3
:1006F000CD00CC014C084404C8004D08C900C70116
:100700004108C6004608CD00CC014C084204C60092
:100710004D08C70047087F3C0318992BFF3A031D7B
:10072000952B4608003C0318992B2D30A600C713C3
:100730009B2B2030A6004708CF004608CE00D101F1
:100740006430D000A3227908CD007808CC00790865
:10075000CF007808CE00D1010A30D000A32230307B
:100760007707A7004708CF004608CE00D1010A301E
:10077000D000A3227908CD007808CC007908CF00FA
:100780007808CE00D1010A30D000A322303077079C
:10079000A8004708CF004608CE00D1010A30D0009B
:1007A000A32230307707AA004808E83C031DDF2B5E
:1007B0004908033C031DDF2B3130B600E12B20300C
:1007C000B6004908CF004808CE00D1016430D000FF
:1007D000A3227908CD007808CC007908CF007808EA
:1007E000CE00D1010A30D000A32230307707B70005
:1007F0004908CF004808CE00D1010A30D000A3221A
:100800007908CD007808CC007908CF007808CE00B0
:10081000D1010A30D000A32230307707B800490850
:10082000CF004808CE00D1010A30D000A3223030DA
:100830007707BA00DF30AB000130D000D1003221A1
:10084000203084008313C8220130D0000230D10050
:100850003221303084008313C8223C2C0C30CF006E
:1008600044210130D000D1003221093003178D001E
:1008700000308F0003134D22582C0C30CF00442140
:100880000330D0000130D1003221113003178D0028
:1008900000308F0003134D220130D0000230D10010
:1008A0003221173003178D0000308F0003134D22C3
:0408B0003E2B630078
:04400E00C42C0007B7
:00000001FF
;PIC16F887
;CRC=1524  CREATED="03-ћжнне-17 09:12"
